:020000040800F2
:1000000000500020552A00084D29000855290008F5
:100010005D290008652900086D290008000000001E
:10002000000000000000000000000000752900082A
:1000300081290008000000008D2900089929000886
:100040009D2A00089D2A00089D2A00089D2A000874
:100050009D2A00089D2A00089D2A00089D2A000864
:100060009D2A00089D2A00089D2A00089D2A000854
:100070009D2A00089D2A00089D2A0008A52900083D
:100080009D2A00089D2A00089D2A00089D2A000834
:100090009D2A00089D2A00089D2A00089D2A000824
:1000A0009D2A00089D2A00089D2A00089D2A000814
:1000B000B92900089D2A00089D2A00089D2A0008E9
:1000C0009D2A00089D2A00089D2A00089D2A0008F4
:1000D0009D2A00089D2A00089D2A00089D2A0008E4
:1000E000CD2900089D2A00089D2A00080000000074
:1000F0000000000000000000000000000000000000
:0C01000000000000000000005FF808F1A3
:10010C0010B5054C237833B9044B13B10448AFF345
:10011C0000800123237010BD64000020000000004B
:10012C00187C000808B5034B1BB103490348AFF317
:10013C00008008BD0000000068000020187C00084A
:10014C0081F0004102E000BF83F0004330B54FEA7C
:10015C0041044FEA430594EA050F08BF90EA020FE9
:10016C001FBF54EA000C55EA020C7FEA645C7FEA7C
:10017C00655C00F0E2804FEA5454D4EB5555B8BF9F
:10018C006D420CDD2C4480EA020281EA030382EA10
:10019C00000083EA010180EA020281EA0303362DA2
:1001AC0088BF30BD11F0004F4FEA01314FF4801C75
:1001BC004CEA113102D0404261EB410113F0004F87
:1001CC004FEA03334CEA133302D0524263EB43033E
:1001DC0094EA050F00F0A780A4F10104D5F1200EDC
:1001EC000DDB02FA0EFC22FA05F2801841F1000137
:1001FC0003FA0EF2801843FA05F359410EE0A5F10B
:10020C0020050EF1200E012A03FA0EFC28BF4CF03B
:10021C00020C43FA05F3C01851EBE37101F00045F1
:10022C0007D54FF0000EDCF1000C7EEB00006EEBFE
:10023C000101B1F5801F1BD3B1F5001F0CD3490888
:10024C005FEA30004FEA3C0C04F101044FEA4452DF
:10025C0012F5800F80F09A80BCF1004F08BF5FEA66
:10026C00500C50F1000041EB045141EA050130BD46
:10027C005FEA4C0C404141EB0101013C28BFB1F558
:10028C00801FE9D291F0000F04BF01460020B1FAA3
:10029C0081F308BF2033A3F10B03B3F120020CDA76
:1002AC000C3208DD02F1140CC2F10C0201FA0CF054
:1002BC0021FA02F10CE002F11402D8BFC2F1200CB9
:1002CC0001FA02F120FA0CFCDCBF41EA0C0190406F
:1002DC00E41AA2BF01EB0451294330BD6FEA0404B8
:1002EC001F3C1CDA0C340EDC04F11404C4F12002A3
:1002FC0020FA04F001FA02F340EA030021FA04F3B5
:10030C0045EA030130BDC4F10C04C4F1200220FA0B
:10031C0002F001FA04F340EA0300294630BD21FA49
:10032C0004F0294630BD94F0000F83F4801306BF0F
:10033C0081F480110134013D4EE77FEA645C18BF03
:10034C007FEA655C29D094EA050F08BF90EA020F9A
:10035C0005D054EA000C04BF1946104630BD91EA92
:10036C00030F1EBF0021002030BD5FEA545C05D195
:10037C004000494128BF41F0004130BD14F58004D4
:10038C003CBF01F5801130BD01F0004545F0FE4148
:10039C0041F470014FF0000030BD7FEA645C1ABF7D
:1003AC00194610467FEA655C1CBF0B46024650EAB4
:1003BC00013406BF52EA033591EA030F41F40021E0
:1003CC0030BD00BF90F0000F04BF0021704730B566
:1003DC004FF4806404F132044FF000054FF000013B
:1003EC0050E700BF90F0000F04BF0021704730B5FC
:1003FC004FF4806404F1320410F0004548BF4042D1
:10040C004FF000013EE700BF42004FEAE2014FEA25
:10041C0031014FEA02701FBF12F07F4393F07F4F00
:10042C0081F06051704732F07F4208BF704793F003
:10043C007F4F04BF41F40021704730B54FF4607416
:10044C0001F0004521F000411CE700BF50EA010219
:10045C0008BF704730B54FF000050AE050EA0102C2
:10046C0008BF704730B511F0004502D5404261EB32
:10047C0041014FF4806404F132045FEA915C3FF473
:10048C00D8AE4FF003025FEADC0C18BF03325FEA10
:10049C00DC0C18BF033202EBDC02C2F1200300FAC1
:1004AC0003FC20FA02F001FA03FE40EA0E0021FAE6
:1004BC0002F11444BDE600BF4FEA4102B2F1E04341
:1004CC0024BFB3F5001CDCF1FE5C0DD901F0004C2F
:1004DC004FEAC0024CEA5070B2F1004F40EB83007F
:1004EC0008BF20F00100704711F0804F21D113F1AB
:1004FC003872BCBF01F00040704741F480114FEAE4
:10050C005252C2F11802C2F1200C10FA0CF320FA6C
:10051C0002F018BF40F001004FEAC1234FEAD32389
:10052C0003FA0CFC40EA0C0023FA02F34FEA4303F3
:10053C00CCE77FEA625307D150EA01331EBF4FF07C
:10054C00FE4040F44000704701F0004040F0FE4097
:10055C0040F40000704700BF42000ED2B2F1FE4FD3
:10056C000BD34FF09E03B3EB126209D44FEA002376
:10057C0043F0004323FA02F070474FF0000070473D
:10058C0012F1610F01D1420202D14FF0FF307047DE
:10059C004FF00000704700BF90B585B000AF044627
:1005AC00084611461A462346FB800346BB800B4681
:1005BC007B8013463B800023FB600CE0FB689AB207
:1005CC00BB88134499B23B887A88F88806F0DEFD24
:1005DC00FB680133FB6097F82030FA689A42EDDB38
:1005EC0000BF00BF1437BD4690BD90B585B000AFBD
:1005FC000446084611461A462346FB800346BB8038
:10060C000B467B8013463B800023FB600CE0FB68B1
:10061C009AB2FB88134498B23B887A88B98806F062
:10062C00F9FDFB680133FB6097F82030FA689A42B9
:10063C00EDDB00BF00BF1437BD4690BDF0B5A1B0D7
:10064C0004AF0446084611461A462346FB7103467E
:10065C00BB710B467B7113467B80FB792A4AA2FB4C
:10066C000323DB08DBB29C46FA79274BA3FB02136E
:10067C00D9080B469B000B445B00D31ADBB29E4699
:10068C00BB79214AA2FB0323DB08DBB21C46BA79F7
:10069C001D4BA3FB0213D9080B469B000B445B00BC
:1006AC00D31ADBB21D467B79174AA2FB0323DB0866
:1006BC00DBB21E467A79144BA3FB0213D9080B4606
:1006CC009B000B445B00D31ADBB207F10C000393C5
:1006DC00029601950094734662460C4906F0DEFDC5
:1006EC00B7F888107A8807F10C00B7F890300193AE
:1006FC00B7F88C3000930B46054906F00DF900BF96
:10070C007437BD46F0BD00BFCDCCCCCC307C0008DE
:10071C00AC980008F0B5A1B004AF044608461146E9
:10072C001A462346FB710346BB710B467B7113467D
:10073C007B80FB792A4AA2FB0323DB08DBB29C46B5
:10074C00FA79274BA3FB0213D9080B469B000B44E9
:10075C005B00D31ADBB29E46BB79214AA2FB032372
:10076C00DB08DBB21C46BA791D4BA3FB0213D9087C
:10077C000B469B000B445B00D31ADBB21D467B7906
:10078C00174AA2FB0323DB08DBB21E467A79144B13
:10079C00A3FB0213D9080B469B000B445B00D31A36
:1007AC00DBB207F10C00039302960195009473469B
:1007BC0062460C4906F072FDB7F888107A8807F18A
:1007CC000C00B7F890300193B7F88C3000930B46BF
:1007DC00054906F0A1F800BF7437BD46F0BD00BF57
:1007EC00CDCCCCCC407C0008AC98000880B588B04F
:1007FC0002AF0346FB710B46BB8013467B8007F1AF
:10080C000802FB791146184605F038FFFB79012BDD
:10081C000BD107F108007B880193BB880093C3239D
:10082C004422304906F078F858E0FB79022B0BD1C2
:10083C0007F108007B880193BB880093C3234122F6
:10084C00284906F069F849E0FB79032B0BD107F135
:10085C0008007B880193BB880093C3233A2221496B
:10086C0006F05AF83AE0FB79042B0BD107F108009B
:10087C007B880193BB880093C3231B22194906F084
:10088C004BF82BE0FB79052B0BD107F108007B888B
:10089C000193BB880093C3232D22124906F03CF828
:1008AC001CE0FB79062B0BD107F108007B88019328
:1008BC00BB880093C32348220A4906F02DF80DE0AB
:1008CC00FB79072B0AD107F108007B880193BB88C1
:1008DC000093C3232B22034906F01EF800BF1837E0
:1008EC00BD4680BDAC98000890B587B000AF0446FB
:1008FC00084611461A462346FB800346BB800B462E
:10090C007B8013463B80FB88502B21D1BB88DA2B94
:10091C001ED10023FB8217E00023BB820EE0FA8875
:10092C00FB8A134498B2BA88BB8A13449BB23A8DA3
:10093C00194606F069FBBB8A0133BB82BB8A042BC8
:10094C00EDD9FB8A0133FB82FB8A5B2BE4D947E0B0
:10095C00FB88692B23D1BB8840F2251293421ED110
:10096C0000237B8217E000233B820EE0FA887B8A0F
:10097C00134498B2BA883B8A13449BB23A8D1946F9
:10098C0006F042FB3B8A01333B823B8A042BEDD9B8
:10099C007B8A01337B827B8A2C2BE4D920E00023D9
:1009AC00FB8118E00023BB810EE0FA88FB8913441D
:1009BC0098B2BA88BB8913449BB23A8D194606F09B
:1009CC0023FBBB890133BB81BA893B889A42ECD3A8
:1009DC00FB890133FB81FA897B889A42E2D300BF01
:1009EC0000BF1C37BD4690BD80B483B000AF7860AB
:1009FC0039603B681B88782B2CD17B681B88442B77
:100A0C0007D07B681B886D2B03D07B681B88962BCB
:100A1C0006D17B681B8812339AB27B681A8049E036
:100A2C007B681B88562B03D07B681B887F2B06D1D9
:100A3C007B681B8817339AB27B681A803AE07B6814
:100A4C001B88A82B36D17B681B8801339AB27B6834
:100A5C001A802FE03B681B88F02B2BD17B681B88FE
:100A6C00442B07D07B681B88702B03D07B681B88BA
:100A7C009C2B06D17B681B8812339AB27B681A8038
:100A8C0018E07B681B88562B03D07B681B88822B55
:100A9C0006D17B681B881A339AB27B681A8009E0EE
:100AAC007B681B88AE2B05D17B681B8802339AB2FE
:100ABC007B681A807B681B88A82B0AD93B681B882B
:100ACC00782B06D17B6850221A803B68DA221A8078
:100ADC002FE07B681B88502B0AD13B681B88DA2BD4
:100AEC0006D17B6844221A803B68F0221A8020E0F1
:100AFC007B681B88AF2B0BD93B681B88F02B07D16D
:100B0C007B6869221A803B6840F225121A8010E03B
:100B1C007B681B88692B0CD13B681B8840F2251223
:100B2C00934206D17B6844221A803B6878221A8053
:100B3C00FFE700BF0C37BD4680BC704790B585B051
:100B4C0000AF0446084611461A462346FB8003466E
:100B5C00BB800B467B8013463B800023FB8118E057
:100B6C000023BB810EE0FA88FB89134498B2BA8843
:100B7C00BB8913449BB23A8C194606F045FABB89E3
:100B8C000133BB813A88BB899A42ECD2FB89013391
:100B9C00FB817A88FB899A42E2D200BF00BF1437EE
:100BAC00BD4690BD80B584B002AF786039607B687B
:100BBC0018883B6819884FF6FF73009303235C2257
:100BCC00FFF7BCFF3B681B8840F20D12934203D128
:100BDC003B6877221A8005E03B681B8819339AB270
:100BEC003B681A8000BF0837BD4680BD80B584B015
:100BFC0002AF786039607B6818883B6819884FF6BB
:100C0C00FF73009303235C22FFF798FF3B681B885C
:100C1C00772B04D13B6840F20D121A8005E03B683B
:100C2C001B88193B9AB23B681A8000BF0837BD4637
:100C3C0080BD000080B485B000AFF860B9607A6008
:100C4C003B6097F82430442B20D197F82830782B30
:100C5C001CD1FB681B78092B05D9FB681B780A3B58
:100C6C00DBB2092B06D8FB681B780A33DAB2FB68B7
:100C7C001A700BE0FB681B78143BDBB2092B05D810
:100C8C00FB681B78143BDAB2FB681A7097F82430B7
:100C9C00562B14D197F82830782B10D1FB681B7881
:100CAC005A1C8F4B83FB02139910D317C91A0B468E
:100CBC005B000B44DB00D11ACAB2FB681A7097F8C0
:100CCC0024306D2B32D197F82830782B2ED1BB687D
:100CDC001B78092B17D9BB681B780A3BDBB2092B95
:100CEC0011D9BB681B78143BDBB2092B0BD9BB6841
:100CFC001B781E3BDBB2092B05D9BB681B78283B44
:100D0C00DBB2092B06D8BB681B780A33DAB2BB6896
:100D1C001A700BE0BB681B78323BDBB2092B05D891
:100D2C00BB681B78323BDAB2BB681A7097F8243078
:100D3C007F2B15D197F82830782B11D1BB681B78F5
:100D4C005A1C684B83FB021313445911D317C91A4D
:100D5C000B461B015B1A9B00D11ACAB2BB681A70F6
:100D6C0097F82430962B32D197F82830782B2ED147
:100D7C007B681B78092B17D97B681B780A3BDBB285
:100D8C00092B11D97B681B78143BDBB2092B0BD9CF
:100D9C007B681B781E3BDBB2092B05D97B681B7863
:100DAC00283BDBB2092B06D87B681B780A33DAB2F6
:100DBC007B681A700BE07B681B78323BDBB2092B2B
:100DCC0005D87B681B78323BDAB27B681A7097F8CF
:100DDC002430A82B15D197F82830782B11D17B68AB
:100DEC001B785A1C3F4B83FB021313445911D31726
:100DFC00C91A0B461B015B1A9B00D11ACAB27B683D
:100E0C001A7097F82830DA2B11D13B681A78364BC8
:100E1C00A3FB0213D11A49080B4499080B46DB00BB
:100E2C005B1AD31ADBB20133DAB23B681A7097F84B
:100E3C002430442B26D197F82830F02B22D1BB69D3
:100E4C001B78092B0BD9BB691B780A3BDBB2092B2E
:100E5C0005D9BB691B78143BDBB2092B06D8BB69DF
:100E6C001B780A33DAB2BB691A700BE0BB691B78CA
:100E7C001E3BDBB2092B05D8BB691B781E3BDAB2D3
:100E8C00BB691A7097F82430562B15D197F8283077
:100E9C00F02B11D1BB691A78144BA3FB0213D11A96
:100EAC0049080B4419090B465B015B1AD31ADBB2D8
:100EBC000133DAB2BB691A7097F82430702B23D146
:100ECC0097F82830F02B1FD1FB691B78092B0FD812
:100EDC00FB691B780A33DAB2FB691A7014E000BFA5
:100EEC00ABAAAA2A898888882549922485104208A9
:100EFC00FB691B780A3BDBB2092B05D8FB691B7815
:100F0C000A3BDAB2FB691A7097F82430822B13D1A2
:100F1C0097F82830F02B0FD1FB691A783C4BA3FBC8
:100F2C000213D9080B465B000B449B00D31ADBB2AF
:100F3C000133DAB2FB691A7097F824309C2B4AD132
:100F4C0097F82830F02B46D13B6A1B78092B2FD908
:100F5C003B6A1B780A3BDBB2092B29D93B6A1B780D
:100F6C00143BDBB2092B23D93B6A1B781E3BDBB24B
:100F7C00092B1DD93B6A1B78283BDBB2092B17D9EF
:100F8C003B6A1B78323BDBB2092B11D93B6A1B78CD
:100F9C003C3BDBB2092B0BD93B6A1B78463BDBB2E3
:100FAC00092B05D93B6A1B78503BDBB2092B06D8C1
:100FBC003B6A1B780A33DAB23B6A1A700BE03B6A65
:100FCC001B785A3BDBB2092B05D83B6A1B785A3B82
:100FDC00DAB23B6A1A7097F82430AE2B13D197F81B
:100FEC002830F02B0FD13B6A1B780133094A82FB66
:100FFC0003125111DA178A1A642101FB02F29A1AB0
:10100C00D2B23B6A1A7000BF1437BD4680BC704721
:10101C00ABAAAAAA1F85EB5180B485B000AFF860CB
:10102C00B9607A603B6097F82430442B20D197F854
:10103C002830782B1CD1FB681B78092B05D9FB6851
:10104C001B780A3BDBB2092B06D8FB681B780A3BE2
:10105C00DAB2FB681A700BE0FB681B78143BDBB24E
:10106C00092B05D8FB681B781433DAB2FB681A70AD
:10107C0097F82430562B14D197F82830782B10D1B0
:10108C00FB681B785A1E8F4B83FB02139910D317E6
:10109C00C91A0B465B000B44DB00D11ACAB2FB68C1
:1010AC001A7097F824306D2B32D197F82830782BA2
:1010BC002ED1BB681B78092B17D9BB681B780A3B50
:1010CC00DBB2092B11D9BB681B78143BDBB2092BA3
:1010DC000BD9BB681B781E3BDBB2092B05D9BB684F
:1010EC001B78283BDBB2092B06D8BB681B780A3B64
:1010FC00DAB2BB681A700BE0BB681B78323BDBB210
:10110C00092B05D8BB681B783233DAB2BB681A706E
:10111C0097F824307F2B15D197F82830782B11D1E4
:10112C00BB681B785A1E684B83FB0213134459117E
:10113C00D317C91A0B461B015B1A9B00D11ACAB2F2
:10114C00BB681A7097F82430962B32D197F8283058
:10115C00782B2ED17B681B78092B17D97B681B78D1
:10116C000A3BDBB2092B11D97B681B78143BDBB231
:10117C00092B0BD97B681B781E3BDBB2092B05D9DD
:10118C007B681B78283BDBB2092B06D87B681B7865
:10119C000A3BDAB27B681A700BE07B681B78323B37
:1011AC00DBB2092B05D87B681B783233DAB27B684B
:1011BC001A7097F82430A82B15D197F82830782B73
:1011CC0011D17B681B785A1E3F4B83FB02131344CF
:1011DC005911D317C91A0B461B015B1A9B00D11A64
:1011EC00CAB27B681A7097F82830DA2B11D13B6899
:1011FC001A78364BA3FB0213D11A49080B449908F1
:10120C000B46DB005B1AD31ADBB2013BDAB23B684C
:10121C001A7097F82430442B26D197F82830F02BED
:10122C0022D1BB691B78092B0BD9BB691B780A3BF4
:10123C00DBB2092B05D9BB691B78143BDBB2092B3C
:10124C0006D8BB691B780A3BDAB2BB691A700BE093
:10125C00BB691B781E3BDBB2092B05D8BB691B781D
:10126C001E33DAB2BB691A7097F82430562B15D19D
:10127C0097F82830F02B11D1BB691A78144BA3FBCB
:10128C000213D11A49080B4419090B465B015B1A6E
:10129C00D31ADBB2013BDAB2BB691A7097F824306F
:1012AC00702B23D197F82830F02B1FD1FB691B78BA
:1012BC00092B0FD8FB691B780A3BDAB2FB691A7051
:1012CC0014E000BFABAAAA2A8988888825499224F1
:1012DC0085104208FB691B780A3BDBB2092B05D849
:1012EC00FB691B780A33DAB2FB691A7097F8243061
:1012FC00822B13D197F82830F02B0FD1FB691A7879
:10130C003C4BA3FB0213D9080B465B000B449B0020
:10131C00D31ADBB2013BDAB2FB691A7097F82430AE
:10132C009C2B4AD197F82830F02B46D13B6A1B787E
:10133C00092B2FD93B6A1B780A3BDBB2092B29D925
:10134C003B6A1B78143BDBB2092B23D93B6A1B7815
:10135C001E3BDBB2092B1DD93B6A1B78283BDBB249
:10136C00092B17D93B6A1B78323BDBB2092B11D9FD
:10137C003B6A1B783C3BDBB2092B0BD93B6A1B78D5
:10138C00463BDBB2092B05D93B6A1B78503BDBB2E1
:10139C00092B06D83B6A1B780A3BDAB23B6A1A70F7
:1013AC000BE03B6A1B785A3BDBB2092B05D83B6A36
:1013BC001B785A33DAB23B6A1A7097F82430AE2B8A
:1013CC0013D197F82830F02B0FD13B6A1B78013BD7
:1013DC00094A82FB03125111DA178A1A642101FBA4
:1013EC0002F29A1AD2B23B6A1A7000BF1437BD4689
:1013FC0080BC7047ABAAAAAA1F85EB5180B584B0FC
:10140C0002AF3A601A460346FB710B46BB7113469A
:10141C00BB80BB79772B28D13B6802331B78002B20
:10142C000FD14FF6FF730193002300936423B42272
:10143C007C497D4805F070FA3B68023301221A7032
:10144C00EBE03B6802331B78012B40F0E6803B8AD3
:10145C00BA884FF6FF7100916421B42005F03AFE72
:10146C003B68023300221A70D7E0BB79902B28D14D
:10147C003B6803331B78002B0FD14FF6FF7301939E
:10148C00002300937D23BA226649674805F044FA8D
:10149C003B68033301221A70BFE03B6803331B78AF
:1014AC00012B40F0BA803B8ABA884FF6FF7100914D
:1014BC007D21BA2005F00EFE3B68033300221A7022
:1014CC00ABE0BB79A92B28D13B6804331B78002BEC
:1014DC000FD14FF6FF730193002300939623C7227D
:1014EC005049514805F018FA3B68043301221A7030
:1014FC0093E03B6804331B78012B40F08E803B8AD1
:10150C00BA884FF6FF7100919621C72005F0E2FDD5
:10151C003B68043300221A707FE0BB79C22B27D1C1
:10152C003B6805331B78002B0FD14FF6FF730193EB
:10153C0000230093AF23C5223A493B4805F0ECF950
:10154C003B68053301221A7067E03B6805331B7852
:10155C00012B62D13B8ABA884FF6FF710091AF2103
:10156C00C52005F0B7FD3B68053300221A7054E026
:10157C00BB79DB2B27D13B6806331B78002B0FD1B3
:10158C004FF6FF73019300230093C823AF22254924
:10159C00254805F0C1F93B68063301221A703CE07E
:1015AC003B6806331B78012B37D13B8ABA884FF640
:1015BC00FF710091C821AF2005F08CFD3B6806330C
:1015CC0000221A7029E0BB79F42B26D13B68073333
:1015DC001B78002B0FD14FF6FF7301930023009360
:1015EC00E123C3220F49104805F096F93B680733F5
:1015FC0001221A7011E03B6807331B78012B0CD1C8
:10160C003B8ABA884FF6FF710091E121C32005F0A7
:10161C0061FD3B68073300221A7000BF0837BD46D6
:10162C0080BD00BF487D0008507C000880B483B0AA
:10163C0000AF78607B681B685B6A0D4A13600C4BCB
:10164C001B6859080B4BA3FB0123CA1A52081344FD
:10165C001A0913465B001344DA00D21A8A1A92B2A2
:10166C00054B1A8000BF0C37BD4680BC704700BFCD
:10167C002C030020876118863003002080B584B0CD
:10168C0002AF0346FB80FB88082B68D10821364843
:10169C0001F006FF0346002B61D1344B1B78002B65
:1016AC0005D1324B05221A70314B01221A702F4B87
:1016BC001B78052B23D12F4B1B88772B05D12B4B5C
:1016CC0000221A702A4B01221A702A4B1B88902B6D
:1016DC000BD1264B01221A70254B01221A70264B76
:1016EC0044221A80234B78221A80224B1B88A92B68
:1016FC0005D11E4B02221A701D4B01221A701B4B76
:10170C001B78012B17D11C4B1B88692B0FD1194B44
:10171C001B8840F22512934209D1144B04221A70F3
:10172C00134B01221A70C82001F016FA03E011497C
:10173C001148FFF759F90D4B1B78042B0FD10E4BA9
:10174C001B88D8B20B4B1B88D9B20C4B1B781A4692
:10175C000B4B1B78009313460A4AFFF74FFE00BF52
:10176C000837BD4680BD00BF00080140340300208F
:10177C00000000201E0300201C030020010000209C
:10178C000200002024030020F0B587B006AF01F062
:10179C0081F900F015FC00F02BFE00F00BFE00F0C0
:1017AC00EFFC00F053FC00F07FFC00F0B3FC00F009
:1017BC00D7FD00F039FD00F085FD6822A749A84847
:1017CC0004F00EFF4FF40071A64805F019F8A64876
:1017DC0004F02CFD4FF48053A24A0021A34804F0DE
:1017EC0082FE3C21A24804F041F805F0F1F94FF6D5
:1017FC00FF7005F0E3FB9F4B0A229A709D4B1E2253
:10180C005A709C4B1E221A709A4B0122DA70994B1B
:10181C0014221A71974B02225A71964B19229A7103
:10182C00954B00229A70944B00225A70924B0022D6
:10183C001A70914B0122DA708F4B00221A718E4B69
:10184C0000225A718C4B00229A718C4B00229A7098
:10185C008A4B00225A70894B00221A70874B012246
:10186C00DA70864B00221A71844B00225A71834B1A
:10187C0000229A717F4B9C787E4B5D787D4B1E7855
:10188C007C4BDB787B4A12797A49497979488079A3
:10189C00039002910192009333462A4621467048E8
:1018AC0004F060FF012201216E4801F010FE704827
:1018BC00FFF7BCFE0820FFF7E1FE714B1B78052BF0
:1018CC0000F2448301A252F823F000BFC11A0008B1
:1018DC00D11B0008451F00084F1F0008C51D00083C
:1018EC00F1180008674B1B78012B40F08E80664B7B
:1018FC004B221A80654B77221A804FF6FF7005F049
:10190C005DFB052300930F23D4222F210D20FEF71E
:10191C0043FE052300930F23D4224FF48C710D202A
:10192C00FEF73AFE052300930F23E9222F210D2009
:10193C00FEF75BFE052300930F23EE222F21DF2001
:10194C00FEF753FE4FF6FF7301934FF47843009369
:10195C0041234E224E494F4804F0DEFF4FF6FF73F1
:10196C0001934FF478430093642352224A494B4825
:10197C0004F0D2FF4FF6FF7301934FF478430093BA
:10198C007D2322224449464804F0C6FF4FF6FF73DC
:10199C0001934FF47843009396232A223E49414801
:1019AC0004F0BAFF4FF6FF7301934FF478430093A2
:1019BC00AF232D2238493C4804F0AEFF4FF6FF739D
:1019CC0001934FF478430093C8234322324936489D
:1019DC0004F0A2FF4FF6FF7301934FF4784300938A
:1019EC00E12331222C49304804F096FF4FF6FF7367
:1019FC0001934FF478430093FA23422226492A4854
:101A0C0004F08AFF1F4B00221A70284B1B881A46C1
:101A1C00274B1B8801339A4204D11C491A48FFF703
:101A2C00C1F80BE0214B1B881A46214B1B88013B4C
:101A3C009A4203D115491448FFF7D8F81B4B1A8862
:101A4C001B4B1A80104B1888104B19884FF4FC63F1
:101A5C00009303235C22FFF771F877E280000020EB
:101A6C00E8020020000C014010020020F0020020CF
:101A7C00C8010020040300200C03002014030020E4
:101A8C0034030020000000201C0300201E03002053
:101A9C00AC980008547C0008487D00085C7C000869
:101AAC00647C0008707C00087C7C000830030020FB
:101ABC0032030020A84B0393A84B0293A84B01932D
:101ACC00A84B0093A84BA94AA949AA4804F0F6FDD3
:101ADC00A94B1B78012B3CD14FF6FF7005F06EFA29
:101AEC00052300930F23D4222F210F20FEF754FD42
:101AFC00052300930F23D4224FF48C710F20FEF793
:101B0C004BFD052300934FF47843E9222F210F203E
:101B1C00FEF76BFD052300930F23EE222F21DF2010
:101B2C00FEF763FD052300930F23D422A5210F207C
:101B3C00FEF732FD4FF6FF7301934FF47843009399
:101B4C004D2359228D498E4804F0E6FE8A4B002223
:101B5C001A70854B9878844B5978834B1A784FF6CA
:101B6C00FF7302934FF4784301937823009344233B
:101B7C00FEF764FD7C4B18797B4B59797A4B9A793B
:101B8C004FF6FF7302934FF478430193F0230093C5
:101B9C004423FEF7BFFD4FF6FF7300931723C322B8
:101BAC00C321172005F096FA6F4BDB784FF6FF72C6
:101BBC004FF478411846FEF719FE4FF47A7000F096
:101BCC00CBFFC3E16C4B1B78012B3CD14FF6FF7064
:101BDC0005F0F4F9052300930F23D4222F210F20B5
:101BEC00FEF7DAFC052300930F23D4224FF49771F0
:101BFC000F20FEF7D1FC052300930F23FF222F218A
:101C0C000F20FEF7F2FC052300930F234FF4827292
:101C1C002F21DF20FEF7E9FC052300930F23D422AC
:101C2C00A5210F20FEF7B8FC4FF6FF7301934FF47C
:101C3C00784300934D2320225049524804F06CFE07
:101C4C004D4B00221A70504B98784F4B59784E4B95
:101C5C001A784FF6FF7302934FF47843019378236D
:101C6C0000934423FEF7EAFC474B1879464B59790D
:101C7C00454B9A794FF6FF7302934FF478430193D7
:101C8C00F02300934423FEF745FD4FF6FF730093BA
:101C9C001723C322C321172005F01CFA3A4BDB781B
:101CAC004FF6FF724FF478411846FEF79FFD4FF642
:101CBC00FF7301934FF4784300934FF487736922B9
:101CCC002E49324804F028FE314B1B881A46314B02
:101CDC001B8801339A4213D12F4B1B88DBB22F4A3E
:101CEC001288D2B2049203932D4B02932D4B019385
:101CFC002D4B00932D4B244A2D492E48FEF79AFF6D
:101D0C00234B1B881A46234B1B88013B9A4213D149
:101D1C00214B1B88DBB2214A1288D2B20492039366
:101D2C001F4B02931F4B01931F4B00931F4B164AE3
:101D3C001F492048FFF770F9174B1888174B198863
:101D4C004FF4FC63009317230F22FEF7CDFD4FF4E5
:101D5C007A7000F001FFF9E00A030020090300206B
:101D6C0008030020070300200403002005030020C3
:101D7C0006030020E802002000000020AC980008B8
:101D8C005C7C0008807C00080C0300208C7C000824
:101D9C0030030020320300201C0300201E0300200F
:101DAC001203002011030020100300200F03002059
:101DBC000D0300200E0300206F4B1B78012B40F00D
:101DCC008E806E4B4E221A806D4B77221A804FF606
:101DDC00FF7005F0F3F8052300930F23D4222F2175
:101DEC000D20FEF7D9FB052300930F23D4224FF4CB
:101DFC008C710D20FEF7D0FB052300930F23E922F5
:101E0C002F210D20FEF7F1FB052300930F23EE226B
:101E1C002F21DF20FEF7E9FB4FF6FF7301934FF400
:101E2C0078430093412340225649574804F074FDEF
:101E3C004FF6FF7301934FF47843009364233C22D5
:101E4C005249534804F068FD4FF6FF7301934FF469
:101E5C00784300937D2337224C494E4804F05CFDB7
:101E6C004FF6FF7301934FF478430093962313229C
:101E7C004649494804F050FD4FF6FF7301934FF467
:101E8C0078430093AF232D224049444804F044FD8D
:101E9C004FF6FF7301934FF478430093C82343220A
:101EAC003A493F4804F038FD4FF6FF7301934FF465
:101EBC0078430093E123312234493A4804F02CFD55
:101ECC004FF6FF7301934FF478430093FA234222A9
:101EDC002E49354804F020FD274B00221A70334B55
:101EEC001B881A46324B1B8801339A4204D1244971
:101EFC002248FEF757FE0BE02C4B1B881A462C4B46
:101F0C001B88013B9A4203D11D491C48FEF76EFE0B
:101F1C00264B1A88264B1A80184B1888184B198890
:101F2C004FF4FC63009303235C22FEF707FE4FF48F
:101F3C007A7000F011FE09E04FF6FF7005F03EF8E4
:101F4C0004E04FF6FF7005F039F800BF194804F0B3
:101F5C00EAFA184B1B691846FEF7FEFA0346DAB28A
:101F6C00154B1A70134BDB681846FEF7F5FA03464F
:101F7C00DAB2124B1A709AE4000000201C03002005
:101F8C001E030020AC980008907C0008487D0008D7
:101F9C00987C0008A07C0008A87C0008B47C000891
:101FAC00C07C0008C87C0008D47C000830030020EA
:101FBC0032030020F0020020200300202103002027
:101FCC0080B590B000AF07F1180328220021184605
:101FDC0005F086F93B1D00221A605A609A60DA609F
:101FEC001A610123BB614FF48033FB6100233B6218
:101FFC000123BB6202237B634FF48033BB634FF43A
:10200C00E013FB6307F11803184602F0F7FA0346D6
:10201C00002B01D000F0ACFA0F237B600223BB60D5
:10202C000023FB604FF480633B6100237B613B1D0D
:10203C000221184602F064FD0346002B01D000F08B
:10204C0097FA00BF4037BD4680BD000080B500AF99
:10205C00124B134A1A60114B124A5A600F4B002252
:10206C009A600E4B0022DA600C4B4FF480421A61DE
:10207C000A4B00225A61094B00229A61074B00223D
:10208C00DA61064B00221A62044801F051FA034649
:10209C00002B01D000F06CFA00BF80BD8000002046
:1020AC0000540040A086010080B500AF174B184AC1
:1020BC001A60164B4FF482725A60144B00229A60CD
:1020CC00124B0022DA60114B00221A610F4B0022D6
:1020DC005A610E4B4FF400729A610C4B2022DA615C
:1020EC000A4B00221A62094B00225A62074B00224B
:1020FC009A62064B0A22DA62044802F08FFE03460B
:10210C00002B01D000F034FA00BF80BDD4000020B9
:10211C000030014080B500AF174B184A1A60164BBF
:10212C004FF482725A60144B00229A60124B0022B8
:10213C00DA60114B00221A610F4B00225A610E4BD0
:10214C004FF400729A610C4B0022DA610A4B0022A8
:10215C001A62094B00225A62074B00229A62064B04
:10216C000A22DA62044802F059FE0346002B01D021
:10217C0000F0FEF900BF80BD2C01002000380040AB
:10218C0080B58CB000AF07F10C0324220021184657
:10219C0005F0A6F83B1D00221A605A60214B4FF047
:1021AC0080421A601F4B00225A601E4B00229A601C
:1021BC001C4B4FF6FF72DA601A4B00221A61194B56
:1021CC0000229A610323FB6002233B6101237B61A4
:1021DC000023BB610023FB6102233B6201237B6272
:1021EC000023BB620023FB6207F10C0319460D4868
:1021FC0003F09AFA0346002B01D000F0B9F9002342
:10220C007B600023BB603B1D1946064803F0C0FEF3
:10221C000346002B01D000F0ABF900BF3037BD46B0
:10222C0080BD00BFC801002080B586B000AF07F1AB
:10223C00080300221A605A609A60DA603B4600225A
:10224C001A605A601D4B1E4A1A601C4B47225A607A
:10225C001A4B00229A60194B4FF6FF72DA60174B3B
:10226C0000221A61154B00229A61144803F09DF963
:10227C000346002B01D000F07BF94FF48053BB6078
:10228C0007F1080319460D4803F06EFC0346002BBA
:10229C0001D000F06DF900233B6000237B603B46CE
:1022AC001946064803F074FE0346002B01D000F0DB
:1022BC005FF900BF1837BD4680BD00BF100200207B
:1022CC000004004080B586B000AF07F1080300227F
:1022DC001A605A609A60DA603B4600221A605A60B3
:1022EC001D4B1E4A1A601C4B47225A601A4B002287
:1022FC009A60194B40F2E732DA60174B00221A61F0
:10230C00154B00229A61144803F04FF90346002B39
:10231C0001D000F02DF94FF48053BB6007F1080396
:10232C0019460D4803F020FC0346002B01D000F0A9
:10233C001FF900233B6000237B603B46194606488F
:10234C0003F026FE0346002B01D000F011F900BF6C
:10235C001837BD4680BD00BF580200200008004061
:10236C0080B500AF114B124A1A60104B4FF4E1329A
:10237C005A600E4B00229A600C4B0022DA600B4B19
:10238C0000221A61094B0C225A61084B00229A61F7
:10239C00064B0022DA61054803F06AFE0346002B67
:1023AC0001D000F0E5F800BF80BD00BFA002002006
:1023BC000038014080B582B000AF0C4B5B690B4A12
:1023CC0043F001035361094B5B6903F001037B602C
:1023DC007B68002200210F2000F0B9FC0F2000F0D8
:1023EC00D2FC00BF0837BD4680BD00BF00100240C4
:1023FC0080B588B000AF07F1100300221A605A6054
:10240C009A60DA60554B9B69544A43F01003936110
:10241C00524B9B6903F01003FB60FB684F4B9B69AD
:10242C004E4A43F0200393614C4B9B6903F020030D
:10243C00BB60BB68494B9B69484A43F004039361FA
:10244C00464B9B6903F004037B607B68434B9B69A1
:10245C00424A43F008039361404B9B6903F0080325
:10246C003B603B6800224FF400513D4801F02FF8CF
:10247C00002210213B4801F02AF8002241F60241CB
:10248C00394801F024F84FF400533B6101237B6180
:10249C000023BB610223FB6107F11003194630488E
:1024AC0000F07AFE4FF400433B61304B7B6100231C
:1024BC00BB6107F110031946294800F06DFE082393
:1024CC003B612A4B7B610023BB6107F1100319466A
:1024DC00244800F061FE10233B6101237B61012342
:1024EC00BB610223FB6107F1100319461D4800F084
:1024FC0053FE41F602433B6101237B610023BB6128
:10250C000223FB6107F110031946174800F044FE43
:10251C004FF480733B6100237B610023BB6107F1A7
:10252C00100319460F4800F037FE4FF444733B611B
:10253C0000237B610023BB6107F1100319460A4895
:10254C0000F02AFE00220021282000F000FC2820A8
:10255C0000F019FC00BF2037BD4680BD00100240C2
:10256C000010014000080140000C01400000111057
:10257C0080B400AF72B600BF00BFFDE780B485B079
:10258C0000AF154B9B69144A43F001039361124B46
:10259C009B6903F00103BB60BB680F4BDB690E4A00
:1025AC0043F08053D3610C4BDB6903F080537B60A9
:1025BC007B680A4B5B68FB60FB6823F0E063FB60A5
:1025CC00FB6843F00073FB60044AFB68536000BF78
:1025DC001437BD4680BC704700100240000001401B
:1025EC0080B588B000AF786007F1100300221A6044
:1025FC005A609A60DA607B681B68154A934223D153
:10260C00144B9B69134A43F008039361114B9B696C
:10261C0003F00803FB60FB68C0233B6112237B6162
:10262C000323FB6107F1100319460B4800F0B4FDBE
:10263C00084BDB69074A43F40013D361054BDB6994
:10264C0003F40013BB60BB6800BF2037BD4680BDE0
:10265C000054004000100240000C014080B58AB0CC
:10266C0000AF786007F1180300221A605A609A6074
:10267C00DA607B681B684A4A934230D1494B9B69AC
:10268C00484A43F480539361464B9B6903F480534F
:10269C007B617B69434B9B69424A43F00403936122
:1026AC00404B9B6903F004033B613B69A023BB6176
:1026BC000223FB6103237B6207F1180319463A4896
:1026CC0000F06AFD4023BB610023FB6100233B62E9
:1026DC0007F118031946344800F05EFD5CE07B6896
:1026EC001B68324A934257D12E4BDB692D4A43F477
:1026FC008043D3612B4BDB6903F48043FB60FB68A5
:10270C00284B9B69274A43F008039361254B9B692F
:10271C0003F00803BB60BB684FF42043BB6102238A
:10272C00FB6103237B6207F118031946204800F074
:10273C0033FD4FF48043BB610023FB6100233B62FC
:10274C0007F1180319461A4800F026FD194B1A4ACE
:10275C001A60184B10225A60164B00229A60154BC7
:10276C008022DA60134B00221A61124B00225A614C
:10277C00104B00229A610F4B0022DA610D4800F0D9
:10278C001DFB0346002B01D0FFF7F2FE7B68094AC4
:10279C009A64084A7B68536200BF2837BD4680BDE7
:1027AC000030014000100240000801400038004099
:1027BC00000C0140840100205800024080B588B014
:1027CC0000AF786007F1100300221A605A609A601B
:1027DC00DA607B681B68B3F1804F2BD1174BDB6938
:1027EC00164A43F00103D361144BDB6903F0010378
:1027FC00FB60FB68114B9B69104A43F00403936127
:10280C000E4B9B6903F00403BB60BB6803233B6165
:10281C0000237B610023BB6107F1100319460848B4
:10282C0000F0BAFC002200211C2000F090FA1C20C1
:10283C0000F0A9FA00BF2037BD4680BD0010024051
:10284C000008014080B485B000AF78607B681B68DD
:10285C00124A93420CD1124BDB69114A43F002032A
:10286C00D3610F4BDB6903F00203FB60FB6810E0E4
:10287C007B681B680B4A93420BD1094BDB69084AF6
:10288C0043F00403D361064BDB6903F00403BB6024
:10289C00BB6800BF1437BD4680BC704700040040C5
:1028AC00001002400008004080B588B000AF78608E
:1028BC0007F1100300221A605A609A60DA607B6894
:1028CC001B681C4A934231D11B4B9B691A4A43F437
:1028DC0080439361184B9B6903F48043FB60FB6856
:1028EC00154B9B69144A43F004039361124B9B698B
:1028FC0003F00403BB60BB684FF400733B6102231D
:10290C007B610323FB6107F1100319460B4800F0B0
:10291C0043FC4FF480633B6100237B610023BB616C
:10292C0007F110031946054800F036FC00BF2037AC
:10293C00BD4680BD00380140001002400008014037
:10294C0080B400AF00BFFDE780B400AF00BFFDE76F
:10295C0080B400AF00BFFDE780B400AF00BFFDE75F
:10296C0080B400AF00BFFDE780B400AF00BFBD4630
:10297C0080BC704780B400AF00BFBD4680BC7047C0
:10298C0080B400AF00BFBD4680BC704780B500AFBF
:10299C0000F0C6F800BF80BD80B500AF024800F063
:1029AC00C7FA00BF80BD00BF8401002080B500AF16
:1029BC00024802F0E9FF00BF80BD00BFC801002043
:1029CC0080B500AF4FF4004000F09AFD00BF80BD11
:1029DC0080B586B000AF7860144A154BD31A7B6172
:1029EC007B693B61134B1B68002B02D1114B124AC4
:1029FC001A60104B1A687B6813443A699A4207D2E2
:102A0C0004F076FC03460C221A604FF0FF3309E009
:102A1C00084B1B68FB60074B1A687B681344054A1C
:102A2C001360FB6818461837BD4680BD0050002067
:102A3C0000040000380300209804002080B400AF8C
:102A4C0000BFBD4680BC7047FFF7F8FF0B480C4930
:102A5C000C4A002302E0D458C4500433C4188C42EE
:102A6C00F9D3094A094C002301E013600432A24255
:102A7C00FBD304F043FCFEF787FE704700000020F8
:102A8C00640000204CC30008640000209404002063
:102A9C00FEE7000080B500AF084B1B68074A43F007
:102AAC0010031360032000F047F90F2000F008F822
:102ABC00FFF764FD0023184680BD00BF00200240D4
:102ACC0080B582B000AF7860124B1A68124B1B783D
:102ADC0019464FF47A73B3FBF1F3B2FBF3F31846D8
:102AEC0000F05FF90346002B01D001230EE07B6858
:102AFC000F2B0AD8002279684FF0FF3000F027F92D
:102B0C00064A7B681360002300E00123184608374F
:102B1C00BD4680BD040000200C00002008000020F1
:102B2C0080B400AF054B1B781A46054B1B68134449
:102B3C00034A136000BFBD4680BC70470C000020E8
:102B4C003C03002080B400AF024B1B681846BD4606
:102B5C0080BC70473C03002080B584B000AF786027
:102B6C00FFF7F0FFB8607B68FB60FB68B3F1FF3FD9
:102B7C0005D00A4B1B781A46FB681344FB6000BF58
:102B8C00FFF7E0FF0246BB68D31AFA689A42F7D8FF
:102B9C0000BF00BF1037BD4680BD00BF0C00002039
:102BAC0080B485B000AF78607B6803F00703FB60EE
:102BBC000C4BDB68BB60BA684FF6FF031340BB607D
:102BCC00FB681A02BB68134343F0BF6343F4003342
:102BDC00BB60044ABB68D36000BF1437BD4680BCE1
:102BEC00704700BF00ED00E080B400AF044BDB6821
:102BFC001B0A03F007031846BD4680BC704700BF94
:102C0C0000ED00E080B483B000AF0346FB7197F990
:102C1C000730002B0BDBFB7903F01F02064997F9F9
:102C2C0007305B09012000FA02F241F8232000BFB3
:102C3C000C37BD4680BC704700E100E080B483B027
:102C4C0000AF03463960FB7197F90730002B0ADBA4
:102C5C003B68DAB20C4997F907301201D2B20B4437
:102C6C0083F800230AE03B68DAB20849FB7903F0E9
:102C7C000F03043B1201D2B20B441A7600BF0C377F
:102C8C00BD4680BC704700BF00E100E000ED00E0F5
:102C9C0080B489B000AFF860B9607A60FB6803F06B
:102CAC000703FB61FB69C3F10703042B28BF042353
:102CBC00BB61FB690433062B02D9FB69033B00E0C3
:102CCC0000237B614FF0FF32BB6902FA03F3DA4356
:102CDC00BB681A407B699A404FF0FF317B6901FA5F
:102CEC0003F3D9437B680B40134318462437BD4686
:102CFC0080BC704780B582B000AF78607B68013BC8
:102D0C00B3F1807F01D301230FE00A4A7B68013BBA
:102D1C0053600F214FF0FF30FFF790FF054B00225F
:102D2C009A60044B07221A60002318460837BD46E8
:102D3C0080BD00BF10E000E080B582B000AF7860CD
:102D4C007868FFF72DFF00BF0837BD4680BD80B502
:102D5C0086B000AF0346B9607A60FB7300237B61D9
:102D6C00FFF742FF78617A68B9687869FFF790FFDE
:102D7C00024697F90F3011461846FFF75FFF00BF68
:102D8C001837BD4680BD80B582B000AF0346FB71DD
:102D9C0097F907301846FFF735FF00BF0837BD46D7
:102DAC0080BD80B582B000AF78607868FFF7A2FF75
:102DBC00034618460837BD4680BD000080B485B078
:102DCC0000AF78600023FB607B68002B01D10123EE
:102DDC0043E07B681B681A46224B1344224AA2FB31
:102DEC0003231B099A007B681A647B681F4ADA6309
:102DFC007B68022283F821207B681B681B68FB60C0
:102E0C00FB6823F47F5323F03003FB607B685A6824
:102E1C007B689B681A437B68DB681A437B681B6979
:102E2C001A437B685B691A437B689B691A437B680E
:102E3C00DB691343FA681343FB607B681B68FA6811
:102E4C001A607B6800229A637B68012283F8212038
:102E5C007B68002283F82020002318461437BD46D7
:102E6C0080BC7047F8FFFDBFCDCCCCCC000002403D
:102E7C0080B586B000AFF860B9607A603B60002323
:102E8C00FB75FB6893F82030012B01D102234BE03A
:102E9C00FB68012283F82020FB6893F82130DBB219
:102EAC00012B3AD1FB68022283F82120FB68002217
:102EBC009A63FB681B681A68FB681B6822F00102A6
:102ECC001A603B687A68B968F86800F037F9FB68F3
:102EDC00DB6A002B08D0FB681B681A68FB681B6850
:102EEC0042F00E021A600FE0FB681B681A68FB6860
:102EFC001B6822F004021A60FB681B681A68FB68E6
:102F0C001B6842F00A021A60FB681B681A68FB68AF
:102F1C001B6842F001021A6005E0FB68002283F88E
:102F2C0020200223FB75FB7D18461837BD4680BD5B
:102F3C0080B584B000AF78607B68DB6B1B68FB608E
:102F4C007B681B681B68BB607B681B6C04229A4007
:102F5C00FB681340002B4FD0BB6803F00403002B1D
:102F6C004AD07B681B681B6803F02003002B07D139
:102F7C007B681B681A687B681B6822F004021A6065
:102F8C007B681B68664A934229D07B681B68654A3C
:102F9C00934222D07B681B68634A93421AD07B68A9
:102FAC001B68624A934212D07B681B68604A93424A
:102FBC000AD07B681B685F4A934202D14FF48003AE
:102FCC000EE04FF080630BE04FF4802308E04FF4E9
:102FDC00804305E04FF4806302E0402300E00423CB
:102FEC00554A53607B68DB6A002B00F094807B6849
:102FFC00DB6A786898478EE07B681B6C02229A40EB
:10300C00FB681340002B56D0BB6803F00203002B67
:10301C0051D07B681B681B6803F02003002B0BD17D
:10302C007B681B681A687B681B6822F00A021A60AE
:10303C007B68012283F821207B681B68384A934205
:10304C0029D07B681B68374A934222D07B681B6867
:10305C00354A93421AD07B681B68344A934212D08B
:10306C007B681B68324A93420AD07B681B68314AE2
:10307C00934202D14FF400130EE04FF000730BE0BB
:10308C004FF4003308E04FF4005305E04FF40073A5
:10309C0002E0202300E00223274A53607B680022D1
:1030AC0083F820207B689B6A002B34D07B689B6A5A
:1030BC00786898472FE07B681B6C08229A40FB6865
:1030CC001340002B28D0BB6803F00803002B23D03F
:1030DC007B681B681A687B681B6822F00E021A60FA
:1030EC007B681A6C7B68DB6B012101FA02F25A6077
:1030FC007B6801229A637B68012283F821207B681C
:10310C00002283F820207B681B6B002B04D07B688B
:10311C001B6B7868984700BF00BF1037BD4680BD59
:10312C00080002401C0002403000024044000240F3
:10313C00580002406C0002400000024080B485B090
:10314C0000AFF860B9607A603B60FB681A6CFB6892
:10315C00DB6B012101FA02F25A60FB681B683A68CA
:10316C005A60FB685B68102B08D1FB681B687A6897
:10317C009A60FB681B68BA68DA6007E0FB681B683A
:10318C00BA689A60FB681B687A68DA6000BF14370B
:10319C00BD4680BC7047000080B48BB000AF786037
:1031AC00396000237B6200233B6269E101227B6A68
:1031BC0002FA03F3FB613B681B68FA691340BB61BD
:1031CC00BA69FB699A4240F058813B685B689A4A3D
:1031DC0093425ED0984A934275D8984A934258D0FD
:1031EC00964A93426FD8964A934252D0944A93424D
:1031FC0069D8944A93424CD0924A934263D8924AEB
:10320C00934246D0904A93425DD8122B2AD8122B67
:10321C0059D801A252F823F09F32000879320008E5
:10322C008B320008CD320008D3320008D3320008AC
:10323C00D3320008D3320008D3320008D33200084E
:10324C00D3320008D3320008D3320008D33200083E
:10325C00D3320008D3320008D33200088132000880
:10326C0095320008794A934213D02CE03B68DB6816
:10327C003B6229E03B68DB6804333B6224E03B683B
:10328C00DB6808333B621FE03B68DB680C333B6256
:10329C001AE03B689B68002B02D104233B6213E0CD
:1032AC003B689B68012B05D108233B627B68FA695C
:1032BC001A6109E008233B627B68FA695A6103E0F2
:1032CC0000233B6200E000BFBB69FF2B01D87B6889
:1032DC0001E07B6804337B61BB69FF2B02D87B6AFE
:1032EC009B0002E07B6A083B9B003B617B691A6890
:1032FC000F213B6901FA03F3DB431A40396A3B693E
:10330C0001FA03F31A437B691A603B685B6803F0AC
:10331C008053002B00F0B1804D4B9B694C4A43F01D
:10332C00010393614A4B9B6903F00103BB60BB68CB
:10333C00484A7B6A9B08023352F82330FB607B6A55
:10334C0003F003039B000F2202FA03F3DB43FA683A
:10335C001340FB607B68404A934213D07B683F4A22
:10336C0093420DD07B683E4A934207D07B683D4A1E
:10337C00934201D1032306E0042304E0022302E07C
:10338C00012300E000237A6A02F0030292009340CA
:10339C00FA681343FB602F497B6A9B080233FA6877
:1033AC0041F823203B685B6803F48013002B06D0A4
:1033BC002D4B9A682C49BB6913438B6006E02A4B52
:1033CC009A68BB69DB43284913408B603B685B6898
:1033DC0003F40013002B06D0234BDA682249BB6997
:1033EC001343CB6006E0204BDA68BB69DB431E4914
:1033FC001340CB603B685B6803F40033002B06D0B2
:10340C00194B5A681849BB6913434B6006E0164BBD
:10341C005A68BB69DB43144913404B603B685B68DB
:10342C0003F48033002B21D00F4B1A680E49BB6973
:10343C0013430B6021E000BF00003210000031107C
:10344C0000002210000021100000121000001110CA
:10345C00001002400000014000080140000C014037
:10346C000010014000140140000401400B4B1A688D
:10347C00BB69DB43094913400B607B6A01337B62F8
:10348C003B681A687B6A22FA03F3002B7FF48EAE3A
:10349C0000BF00BF2C37BD4680BC70470004014004
:1034AC0080B485B000AF78600B467B807B689A68EF
:1034BC007B881340002B02D00123FB7301E0002317
:1034CC00FB73FB7B18461437BD4680BC704780B439
:1034DC0083B000AF78600B467B8013467B707B78A3
:1034EC00002B03D07A887B681A6103E07B881A046E
:1034FC007B681A6100BF0C37BD4680BC704700006A
:10350C0080B582B000AF0346FB80084B5A69FB883C
:10351C001340002B06D0054AFB885361FB881846E4
:10352C00FEF7ACF800BF0837BD4680BD0004014073
:10353C0080B584B000AF78607B68002B01D101238B
:10354C002BE17B6893F83D30DBB2002B06D17B6816
:10355C00002283F83C207868FFF742F87B6824222D
:10356C0083F83D207B681B681A687B681B6822F017
:10357C0001021A607B681B681A687B681B6842F43E
:10358C0000421A607B681B681A687B681B6822F40F
:10359C0000421A6001F0FCFBF8607B685B68814AB2
:1035AC00934207D8FB68804A934294BF01230023BF
:1035BC00DBB206E0FB687D4A934294BF01230023F3
:1035CC00DBB2002B01D00123E7E0FB68784AA2FBB9
:1035DC0003239B0CBB607B681B685B6823F03F017B
:1035EC007B681B68BA680A435A607B681B681B6A55
:1035FC0023F03F017B685B686A4A934202D8BB6840
:10360C00013309E0BB684FF4967202FB03F3694A7D
:10361C00A2FB03239B0901337A6812680B431362E4
:10362C007B681B68DB6923F44F4222F0FF027B6846
:10363C005B685C498B4219D8FB68591E7B685B68D8
:10364C005B00B1FBF3F3591C40F6FC730B40002BF1
:10365C000AD0FB68591E7B685B685B00B1FBF3F317
:10366C000133C3F30B0351E004234FE07B689B68E9
:10367C00002B11D1FB68581E7B6859680B465B0008
:10368C000B44B0FBF3F30133C3F30B03002B0CBF60
:10369C0001230023DBB212E0FB68581E7B685968DB
:1036AC000B469B000B4499000B44B0FBF3F3013326
:1036BC00C3F30B03002B0CBF01230023DBB2002B45
:1036CC0001D0012322E07B689B68002B0ED1FB68A4
:1036DC00581E7B6859680B465B000B44B0FBF3F338
:1036EC000133C3F30B0343F400430FE0FB68581E94
:1036FC007B6859680B469B000B4499000B44B0FB4C
:10370C00F3F30133C3F30B0343F4404379680968C3
:10371C001343CB617B681B681B6823F0C0017B687B
:10372C00DA697B681B6A1A437B681B680A431A6058
:10373C007B681B689B6823F4034323F0FF037A68C0
:10374C0011697A68D26811437A6812680B439360E6
:10375C007B681B68DB6823F0FF017B685A697B6818
:10376C009B691A437B681B680A43DA607B681B6899
:10377C001A687B681B6842F001021A607B680022A1
:10378C001A647B68202283F83D207B6800221A6330
:10379C007B68002283F83E20002318461037BD4674
:1037AC0080BD00BFA08601007F841E00FF083D0085
:1037BC0083DE1B43D34D621080B588B002AFF86036
:1037CC00084611461A4603467B810B463B8113463D
:1037DC00FB80FFF7B7F97861FB6893F83D30DBB2FB
:1037EC00202B40F0D9807B690093192301226D496D
:1037FC00F86800F0CDFC0346002B01D00223CCE08E
:10380C00FB6893F83C30012B01D10223C5E0FB6827
:10381C00012283F83C20FB681B681B6803F0010342
:10382C00012B07D0FB681B681A68FB681B6842F009
:10383C0001021A60FB681B681A68FB681B6822F49B
:10384C0000621A60FB68212283F83D20FB6840224D
:10385C0083F83E20FB6800221A64FB683A6A5A62BD
:10386C00FB68BA8C5A85FB685B8D9AB2FB681A852B
:10387C00FB684D4ADA62F8883A8979897B69019349
:10388C00BB6A00930346F86800F004FB0346002B68
:10389C0052D0012381E07A69B96AF86800F092FD90
:1038AC000346002B0DD0FB681B6C042B07D1FB6867
:1038BC001B681A68FB681B6842F400721A600123CB
:1038CC006BE0FB685B6A1A78FB681B681A61FB6823
:1038DC005B6A5A1CFB685A62FB681B8D013B9AB2EF
:1038EC00FB681A85FB685B8D9BB2013B9AB2FB6847
:1038FC005A85FB681B685B6903F00403042B1BD11E
:10390C00FB681B8D002B17D0FB685B6A1A78FB6871
:10391C001B681A61FB685B6A5A1CFB685A62FB687D
:10392C001B8D013B9AB2FB681A85FB685B8D9BB2C1
:10393C00013B9AB2FB685A85FB681B8D002BAAD100
:10394C007A69B96AF86800F085FD0346002B0DD042
:10395C00FB681B6C042B07D1FB681B681A68FB689F
:10396C001B6842F400721A60012316E0FB681B68A6
:10397C001A68FB681B6842F400721A60FB6820220C
:10398C0083F83D20FB68002283F83E20FB68002270
:10399C0083F83C20002300E0022318461837BD466C
:1039AC0080BD00BF020010000000FFFF80B58CB08E
:1039BC0002AFF860084611461A4603467B810B4657
:1039CC003B811346FB8000233B62FFF7BBF8786218
:1039DC00FB6893F83D30DBB2202B40F050827B6AC1
:1039EC000093192301228249F86800F0D1FB0346A9
:1039FC00002B01D0022343E2FB6893F83C30012BEF
:103A0C0001D102233CE2FB68012283F83C20FB68D5
:103A1C001B681B6803F00103012B07D0FB681B68B4
:103A2C001A68FB681B6842F001021A60FB681B688D
:103A3C001A68FB681B6822F400621A60FB68222279
:103A4C0083F83D20FB68402283F83E20FB6800226F
:103A5C001A64FB683A6B5A62FB68BA8E5A85FB682B
:103A6C005B8D9AB2FB681A85FB68624ADA62F88849
:103A7C003A8979897B6A0193BB6B00930346F8689A
:103A8C0000F09EFA0346002B01D00123F8E1FB68FD
:103A9C001B8D002B13D10023FB61FB681B685B693A
:103AAC00FB61FB681B689B69FB61FB69FB681B681E
:103ABC001A68FB681B6842F400721A60CCE1FB6860
:103ACC001B8D012B1ED1FB681B681A68FB681B68D9
:103ADC0022F480621A6072B600BF0023BB61FB68DF
:103AEC001B685B69BB61FB681B689B69BB61BB693D
:103AFC00FB681B681A68FB681B6842F400721A604A
:103B0C0062B635E0FB681B8D022B1ED1FB681B686F
:103B1C001A68FB681B6842F400621A6072B600BF38
:103B2C0000237B61FB681B685B697B61FB681B681E
:103B3C009B697B617B69FB681B681A68FB681B6867
:103B4C0022F480621A6062B612E0FB681B681A6885
:103B5C00FB681B6842F480621A6000233B61FB68BF
:103B6C001B685B693B61FB681B689B693B613B693C
:103B7C0072E1FB681B8D032B00F21F81FB681B8D10
:103B8C00012B23D17A6AB96BF86800F0ABFC0346C1
:103B9C00002B01D0012373E1FB681B681A69FB68D9
:103BAC005B6AD2B21A70FB685B6A5A1CFB685A6279
:103BBC00FB681B8D013B9AB2FB681A85FB685B8D19
:103BCC009BB2013B9AB2FB685A8545E1FB681B8DA1
:103BDC00022B52D17B6A0093BB6B00220649F8681A
:103BEC0000F0D6FA0346002B08D0012348E100BFB1
:103BFC00020010000000FFFF0400010072B600BFBD
:103C0C00FB681B681A68FB681B6842F400721A6038
:103C1C00FB681B681A69FB685B6AD2B21A70FB6896
:103C2C005B6A5A1CFB685A62FB681B8D013B9AB29B
:103C3C00FB681A85FB685B8D9BB2013B9AB2FB68F3
:103C4C005A8562B600BFFB681B681A69FB685B6A21
:103C5C00D2B21A70FB685B6A5A1CFB685A62FB682A
:103C6C001B8D013B9AB2FB681A85FB685B8D9BB27E
:103C7C00013B9AB2FB685A85EEE07B6A0093BB6B02
:103C8C0000228149F86800F083FA0346002B01D02A
:103C9C000123F5E0FB681B681A68FB681B6822F4BB
:103CAC0080621A6072B600BFFB681B681A69FB68F9
:103CBC005B6AD2B21A70FB685B6A5A1CFB685A6268
:103CCC00FB681B8D013B9AB2FB681A85FB685B8D08
:103CDC009BB2013B9AB2FB685A856C4B1B68DB08A4
:103CEC006B4AA2FB03231A0A13469B001344DA0007
:103CFC00D31A3B623B6A013B3B623B6A002B18D1F7
:103D0C00FB6800221A63FB68202283F83D20FB68C5
:103D1C00002283F83E20FB681B6C43F02002FB68FA
:103D2C001A6462B600BFFB68002283F83C200123B2
:103D3C00A6E0FB681B685B6903F00403042BD9D174
:103D4C00FB681B681A68FB681B6842F400721A60F7
:103D5C00FB681B681A69FB685B6AD2B21A70FB6855
:103D6C005B6A5A1CFB685A62FB681B8D013B9AB25A
:103D7C00FB681A85FB685B8D9BB2013B9AB2FB68B2
:103D8C005A8562B600BFFB681B681A69FB685B6AE0
:103D9C00D2B21A70FB685B6A5A1CFB685A62FB68E9
:103DAC001B8D013B9AB2FB681A85FB685B8D9BB23D
:103DBC00013B9AB2FB685A854EE07A6AB96BF86897
:103DCC0000F090FB0346002B01D0012358E0FB6868
:103DDC001B681A69FB685B6AD2B21A70FB685B6A73
:103DEC005A1CFB685A62FB681B8D013B9AB2FB683C
:103DFC001A85FB685B8D9BB2013B9AB2FB685A85B6
:103E0C00FB681B685B6903F00403042B24D1FB687B
:103E1C001B8D032B07D1FB681B681A68FB681B689A
:103E2C0022F480621A60FB681B681A69FB685B6A83
:103E3C00D2B21A70FB685B6A5A1CFB685A62FB6848
:103E4C001B8D013B9AB2FB681A85FB685B8D9BB29C
:103E5C00013B9AB2FB685A85FB681B8D002B7FF4E3
:103E6C0088AEFB68202283F83D20FB68002283F893
:103E7C003E20FB68002283F83C20002300E0022354
:103E8C0018462837BD4680BD040001000400002000
:103E9C0089B5F81480B588B002AFF86008461146B1
:103EAC001A4603467B810B463B811346FB80FB681D
:103EBC001B681A68FB681B6842F480721A607B6A84
:103ECC0000933B6A00224FF00111F86800F060F992
:103EDC000346002B0DD0FB681B681B6803F4807332
:103EEC00B3F5807F03D1FB684FF400721A6403238F
:103EFC005FE07B89DBB21A46FB681B6802F0FE02AE
:103F0C001A617B6A3A6A2D49F86800F0BBF90346DE
:103F1C00002B01D001234CE000237B61FB681B6864
:103F2C005B697B61FB681B689B697B617B697A6A57
:103F3C00396AF86800F046FA0346002B0DD0FB688E
:103F4C001B6C042B07D1FB681B681A68FB681B6889
:103F5C0042F400721A6001232BE0FB88012B05D17F
:103F6C003B89DAB2FB681B681A6121E03B891B0AAA
:103F7C009BB2DAB2FB681B681A617A6A396AF86814
:103F8C0000F020FA0346002B0DD0FB681B6C042BB1
:103F9C0007D1FB681B681A68FB681B6842F4007247
:103FAC001A60012305E03B89DAB2FB681B681A61D1
:103FBC00002318461837BD4680BD00BF0200010023
:103FCC0080B588B002AFF860084611461A46034621
:103FDC007B810B463B811346FB80FB681B681A6890
:103FEC00FB681B6842F480621A60FB681B681A68E5
:103FFC00FB681B6842F480721A607B6A00933B6A10
:10400C0000224FF00111F86800F0C2F80346002BB3
:10401C000DD0FB681B681B6803F48073B3F5807FBD
:10402C0003D1FB684FF400721A640323AAE07B8966
:10403C00DBB21A46FB681B6802F0FE021A617B6A4F
:10404C003A6A5249F86800F01DF90346002B01D07A
:10405C00012397E000237B61FB681B685B697B6134
:10406C00FB681B689B697B617B697A6A396AF868B3
:10407C0000F0A8F90346002B0DD0FB681B6C042B39
:10408C0007D1FB681B681A68FB681B6842F4007256
:10409C001A60012376E0FB88012B05D13B89DAB24B
:1040AC00FB681B681A6121E03B891B0A9BB2DAB2E0
:1040BC00FB681B681A617A6A396AF86800F082F941
:1040CC000346002B0DD0FB681B6C042B07D1FB683F
:1040DC001B681A68FB681B6842F400721A600123A3
:1040EC0050E03B89DAB2FB681B681A617A6A396A5C
:1040FC00F86800F067F90346002B0DD0FB681B6CC9
:10410C00042B07D1FB681B681A68FB681B6842F418
:10411C0000721A60012335E0FB681B681A68FB68A3
:10412C001B6842F480721A607B6A00933B6A00221F
:10413C004FF00111F86800F02BF80346002B0DD05E
:10414C00FB681B681B6803F48073B3F5807F03D195
:10415C00FB684FF400721A64032313E07B89DBB213
:10416C0043F00103DAB2FB681B681A617B6A3A6A96
:10417C000649F86800F086F80346002B01D00123AD
:10418C0000E0002318461837BD4680BD0200010030
:10419C0080B584B000AFF860B9603B601346FB712A
:1041AC0048E03B68B3F1FF3F44D0FEF7CBFC02463E
:1041BC00BB69D31A3A689A4202D33B68002B39D1B7
:1041CC00BB681B0CDBB2012B0DD1FB681B685B6958
:1041DC00DA43BB6813409BB2002B0CBF01230023B6
:1041EC00DBB21A460CE0FB681B689B69DA43BB68C0
:1041FC0013409BB2002B0CBF01230023DBB21A46E9
:10420C00FB799A4216D1FB6800221A63FB682022C4
:10421C0083F83D20FB68002283F83E20FB681B6C72
:10422C0043F02002FB681A64FB68002283F83C20F0
:10423C00012323E0BB681B0CDBB2012B0DD1FB6807
:10424C001B685B69DA43BB6813409BB2002B0CBF45
:10425C0001230023DBB21A460CE0FB681B689B6948
:10426C00DA43BB6813409BB2002B0CBF0123002325
:10427C00DBB21A46FB799A4293D0002318461037CA
:10428C00BD4680BD80B584B000AFF860B9607A607F
:10429C003B6071E0FB681B685B6903F48063B3F5FA
:1042AC00806F23D1FB681B681A68FB681B6842F49B
:1042BC0000721A60FB681B686FF480625A61FB68BD
:1042CC0000221A63FB68202283F83D20FB68002241
:1042DC0083F83E20FB681B6C43F00402FB681A64F5
:1042EC00FB68002283F83C20012367E07B68B3F174
:1042FC00FF3F41D0FEF726FC02463B68D31A7A6892
:10430C009A4202D37B68002B36D1BB681B0CDBB204
:10431C00012B0CD1FB681B685B69DA43BB6813404B
:10432C009BB2002B14BF01230023DBB20BE0FB6814
:10433C001B689B69DA43BB6813409BB2002B14BF0C
:10434C0001230023DBB2002B16D0FB6800221A637A
:10435C00FB68202283F83D20FB68002283F83E2076
:10436C00FB681B6C43F02002FB681A64FB6800229C
:10437C0083F83C20012321E0BB681B0CDBB2012B32
:10438C000CD1FB681B685B69DA43BB6813409BB2BA
:10439C00002B14BF01230023DBB20BE0FB681B686E
:1043AC009B69DA43BB6813409BB2002B14BF0123FB
:1043BC000023DBB2002B7FF46DAF002318461037BF
:1043CC00BD4680BD80B584B000AFF860B9607A603E
:1043DC0034E0F86800F0E3F80346002B01D0012329
:1043EC0034E0BB68B3F1FF3F28D0FEF7ABFB0246CD
:1043FC007B68D31ABA689A4202D3BB68002B1DD1D2
:10440C00FB681B685B6903F08003802B16D0FB688C
:10441C0000221A63FB68202283F83D20FB680022EF
:10442C0083F83E20FB681B6C43F02002FB681A6487
:10443C00FB68002283F83C20012307E0FB681B6823
:10444C005B6903F08003802BC3D10023184610371F
:10445C00BD4680BD80B584B000AFF860B9607A60AD
:10446C0034E0F86800F09BF80346002B01D00123E0
:10447C0034E0BB68B3F1FF3F28D0FEF763FB024684
:10448C007B68D31ABA689A4202D3BB68002B1DD141
:10449C00FB681B685B6903F00403042B16D0FB68F4
:1044AC0000221A63FB68202283F83D20FB6800225F
:1044BC0083F83E20FB681B6C43F02002FB681A64F7
:1044CC00FB68002283F83C20012307E0FB681B6893
:1044DC005B6903F00403042BC3D100231846103787
:1044EC00BD4680BD80B584B000AFF860B9607A601D
:1044FC0049E0FB681B685B6903F01003102B19D1B2
:10450C00FB681B686FF010025A61FB6800221A638B
:10451C00FB68202283F83D20FB68002283F83E20B4
:10452C00FB681A6CFB681A64FB68002283F83C2059
:10453C00012330E0FEF706FB02467B68D31ABA680B
:10454C009A4202D3BB68002B1DD1FB681B685B69C8
:10455C0003F04003402B16D0FB6800221A63FB6863
:10456C00202283F83D20FB68002283F83E20FB6864
:10457C001B6C43F02002FB681A64FB68002283F872
:10458C003C20012307E0FB681B685B6903F04003D8
:10459C00402BAED1002318461037BD4680BD80B4E9
:1045AC0083B000AF78607B681B685B6903F4806341
:1045BC00B3F5806F1BD17B681B686FF480625A6106
:1045CC007B6800221A637B68202283F83D207B687D
:1045DC00002283F83E207B681B6C43F004027B684E
:1045EC001A647B68002283F83C20012300E000233E
:1045FC0018460C37BD4680BC7047000080B586B0AD
:10460C0000AF78607B68002B01D1012372E27B68DC
:10461C001B6803F00103002B00F08780924B5B6852
:10462C0003F00C03042B0CD08F4B5B6803F00C03D2
:10463C00082B12D18C4B5B6803F48033B3F5803FAD
:10464C000BD1894B1B6803F40033002B6CD07B68B7
:10465C005B68002B68D101234CE27B685B68B3F587
:10466C00803F06D1804B1B687F4A43F48033136034
:10467C002EE07B685B68002B0CD17B4B1B687A4A65
:10468C0023F480331360784B1B68774A23F4802320
:10469C0013601DE07B685B68B3F5A02F0CD1724BE7
:1046AC001B68714A43F4802313606F4B1B686E4A7E
:1046BC0043F4803313600BE06B4B1B686A4A23F4A2
:1046CC0080331360684B1B68674A23F480231360A4
:1046DC007B685B68002B13D0FEF734FA386108E076
:1046EC00FEF730FA02463B69D31A642B01D9032337
:1046FC0000E25D4B1B6803F40033002BF0D014E098
:10470C00FEF720FA386108E0FEF71CFA02463B6916
:10471C00D31A642B01D90323ECE1534B1B6803F42C
:10472C000033002BF0D100E000BF7B681B6803F066
:10473C000203002B63D04C4B5B6803F00C03002B83
:10474C000BD0494B5B6803F00C03082B1CD1464B78
:10475C005B6803F48033002B16D1434B1B6803F0CA
:10476C000203002B05D07B681B69012B01D00123B0
:10477C00C0E13D4B1B6823F0F8027B685B69DB00F2
:10478C00394913430B603AE07B681B69002B20D03E
:10479C00364B01221A60FEF7D5F9386108E0FEF7B6
:1047AC00D1F902463B69D31A022B01D90323A1E1AB
:1047BC002D4B1B6803F00203002BF0D02A4B1B6817
:1047CC0023F0F8027B685B69DB00274913430B601D
:1047DC0015E0264B00221A60FEF7B4F9386108E0A8
:1047EC00FEF7B0F902463B69D31A022B01D9032319
:1047FC0080E11D4B1B6803F00203002BF0D17B689A
:10480C001B6803F00803002B3AD07B689B69002BD4
:10481C0019D0174B01221A60FEF794F9386108E0A1
:10482C00FEF790F902463B69D31A022B01D90323F8
:10483C0060E10D4B5B6A03F00203002BF0D001200A
:10484C0000F0CEFA1CE00A4B00221A60FEF77AF94F
:10485C0038610FE0FEF776F902463B69D31A022B5A
:10486C0008D9032346E100BF001002400000424279
:10487C0080044242924B5B6A03F00203002BE9D1A5
:10488C007B681B6803F00403002B00F0A680002358
:10489C00FB758B4BDB6903F08053002B0DD1884BE0
:1048AC00DB69874A43F08053D361854BDB6903F0A6
:1048BC008053BB60BB680123FB75824B1B6803F400
:1048CC008073002B18D17F4B1B687E4A43F4807396
:1048DC001360FEF737F9386108E0FEF733F902464A
:1048EC003B69D31A642B01D9032303E1754B1B6875
:1048FC0003F48073002BF0D07B68DB68012B06D1AE
:10490C006F4B1B6A6E4A43F0010313622DE07B6808
:10491C00DB68002B0CD16A4B1B6A694A23F001033C
:10492C001362674B1B6A664A23F0040313621CE094
:10493C007B68DB68052B0CD1614B1B6A604A43F02A
:10494C00040313625E4B1B6A5D4A43F0010313625E
:10495C000BE05B4B1B6A5A4A23F001031362584B62
:10496C001B6A574A23F0040313627B68DB68002B35
:10497C0015D0FEF7E7F838610AE0FEF7E3F80246D7
:10498C003B69D31A41F28832934201D90323B1E037
:10499C004B4B1B6A03F00203002BEED014E0FEF726
:1049AC00D1F838610AE0FEF7CDF802463B69D31A1C
:1049BC0041F28832934201D903239BE0404B1B6A9E
:1049CC0003F00203002BEED1FB7D012B05D13C4BF8
:1049DC00DB693B4A23F08053D3617B68DB69002B96
:1049EC0000F08780364B5B6803F00C03082B61D01A
:1049FC007B68DB69022B46D1334B00221A60FEF731
:104A0C00A1F8386108E0FEF79DF802463B69D31A1D
:104A1C00022B01D903236DE0294B1B6803F00073B3
:104A2C00002BF0D17B681B6AB3F5803F08D1244B77
:104A3C005B6823F400327B689B68214913434B600D
:104A4C001F4B5B6823F474127B68196A7B685B6A82
:104A5C000B431B4913434B601B4B01221A60FEF79F
:104A6C0071F8386108E0FEF76DF802463B69D31A1D
:104A7C00022B01D903233DE0114B1B6803F000739B
:104A8C00002BF0D035E0104B00221A60FEF75AF8DC
:104A9C00386108E0FEF756F802463B69D31A022B40
:104AAC0001D9032326E0064B1B6803F00073002B8F
:104ABC00F0D11EE07B68DB69012B07D1012319E0E3
:104ACC000010024000700040600042420B4B5B68DB
:104ADC00FB60FB6803F480327B681B6A9A4206D148
:104AEC00FB6803F470127B685B6A9A4201D0012365
:104AFC0000E0002318461837BD4680BD0010024068
:104B0C0080B584B000AF786039607B68002B01D130
:104B1C000123D0E06A4B1B6803F007033A689A4202
:104B2C0010D9674B1B6823F0070265493B68134398
:104B3C000B60634B1B6803F007033A689A4201D081
:104B4C000123B8E07B681B6803F00203002B20D024
:104B5C007B681B6803F00403002B05D0594B5B6882
:104B6C00584A43F4E06353607B681B6803F0080306
:104B7C00002B05D0534B5B68524A43F4605353608F
:104B8C00504B5B6823F0F0027B689B684D491343E4
:104B9C004B607B681B6803F00103002B40D07B68E3
:104BAC005B68012B07D1474B1B6803F40033002BC8
:104BBC0015D101237FE07B685B68022B07D1414B49
:104BCC001B6803F00073002B09D1012373E03D4BEC
:104BDC001B6803F00203002B01D101236BE0394B5E
:104BEC005B6823F003027B685B68364913434B60B8
:104BFC00FDF7A8FFF8600AE0FDF7A4FF0246FB688A
:104C0C00D31A41F28832934201D9032353E02D4B3E
:104C1C005B6803F00C027B685B689B009A42EBD1EB
:104C2C00274B1B6803F007033A689A4210D2244BB7
:104C3C001B6823F0070222493B6813430B60204B8F
:104C4C001B6803F007033A689A4201D0012332E053
:104C5C007B681B6803F00403002B08D0194B5B68BE
:104C6C0023F4E0627B68DB68164913434B607B6876
:104C7C001B6803F00803002B09D0124B5B6823F46C
:104C8C0060527B681B69DB000E4913434B6000F0DC
:104C9C0021F802460B4B5B681B0903F00F030A4912
:104CAC00CB5C22FA03F3094A1360094B1B681846C4
:104CBC00FDF706FF002318461037BD4680BD00BF28
:104CCC0000200240001002401C7D0008040000205F
:104CDC000800002080B487B000AF0023FB600023E5
:104CEC00BB6000237B6100237B6000233B611E4B78
:104CFC005B68FB60FB6803F00C03042B02D0082BF1
:104D0C0003D027E0194B3B6127E0FB689B0C03F0B9
:104D1C000F03174AD35C7B60FB6803F48033002BD2
:104D2C0010D0114B5B685B0C03F00103114AD35C90
:104D3C00BB607B680D4A03FB02F2BB68B2FBF3F36A
:104D4C007B6104E07B680C4A02FB03F37B617B69AB
:104D5C003B6102E0054B3B6100BF3B6918461C37C9
:104D6C00BD4680BC704700BF0010024000127A00A4
:104D7C00347D0008447D000800093D0080B400AF7C
:104D8C00024B1B681846BD4680BC704704000020CF
:104D9C0080B500AFFFF7F2FF0246054B5B681B0ABC
:104DAC0003F007030349CB5C22FA03F3184680BDDA
:104DBC00001002402C7D000880B500AFFFF7DEFF2D
:104DCC000246054B5B68DB0A03F007030349CB5C27
:104DDC0022FA03F3184680BD001002402C7D000817
:104DEC0080B485B000AF78600A4B1B680A4AA2FBFE
:104DFC0003235B0A7A6802FB03F3FB6000BFFB68CA
:104E0C005A1EFA60002BF9D100BF00BF1437BD4603
:104E1C0080BC704704000020D34D621080B582B076
:104E2C0000AF78607B68002B01D1012376E07B68B2
:104E3C005B6A002B08D17B685B68B3F5827F09D075
:104E4C007B680022DA6105E07B6800221A617B68CE
:104E5C0000225A617B6800229A627B6893F8513079
:104E6C00DBB2002B06D17B68002283F850207868D7
:104E7C00FDF7F4FB7B68022283F851207B681B68EA
:104E8C001A687B681B6822F040021A607B685B68BA
:104E9C0003F482727B689B6803F404431A437B68B7
:104EAC00DB6803F400631A437B681B6903F002039D
:104EBC001A437B685B6903F001031A437B689B69A7
:104ECC0003F400731A437B68DB6903F038031A435D
:104EDC007B681B6A03F0800342EA03017B689B6AD0
:104EEC0003F400527B681B680A431A607B689B6959
:104EFC001A0C7B681B6802F004025A607B681B6802
:104F0C00DA697B681B6822F40062DA617B68002234
:104F1C005A657B68012283F8512000231846083714
:104F2C00BD4680BD80B588B000AFF860B9603B600D
:104F3C001346FB80FDF706FEF861FB887B83FB685C
:104F4C0093F85130DBB2012B01D002232AE1BB686C
:104F5C00002B02D0FB88002B01D1012322E1FB683E
:104F6C0093F85030012B01D102231BE1FB68012285
:104F7C0083F85020FB68032283F85120FB68002241
:104F8C005A65FB68BA681A63FB68FA889A86FB68EC
:104F9C00FA88DA86FB6800229A63FB6800229A87FB
:104FAC00FB680022DA87FB6800225A64FB68002247
:104FBC001A64FB689B68B3F5004F0FD1FB681B6844
:104FCC001A68FB681B6822F040021A60FB681B68B9
:104FDC001A68FB681B6842F480421A60FB681B6805
:104FEC001B6803F04003402B07D0FB681B681A6852
:104FFC00FB681B6842F040021A60FB68DB68B3F583
:10500C00006F52D1FB685B68002B02D07B8B012BAD
:10501C0045D1FB681B6B1A88FB681B68DA60FB6860
:10502C001B6B9A1CFB681A63FB68DB8E9BB2013B03
:10503C009AB2FB68DA8632E0FB681B689B6803F067
:10504C000203022B12D1FB681B6B1A88FB681B68CE
:10505C00DA60FB681B6B9A1CFB681A63FB68DB8EBF
:10506C009BB2013B9AB2FB68DA8618E0FDF76AFD49
:10507C000246FB69D31A3A689A4203D83B68B3F1EB
:10508C00FF3F02D13B68002B09D1FB68012283F85A
:10509C005120FB68002283F85020032382E0FB6838
:1050AC00DB8E9BB2002BC7D153E0FB685B68002BF7
:1050BC0002D07B8B012B47D1FB681A6BFB681B68FA
:1050CC000C3312781A70FB681B6B5A1CFB681A6342
:1050DC00FB68DB8E9BB2013B9AB2FB68DA8633E04D
:1050EC00FB681B689B6803F00203022B13D1FB685F
:1050FC001A6BFB681B680C3312781A70FB681B6BFD
:10510C005A1CFB681A63FB68DB8E9BB2013B9AB29C
:10511C00FB68DA8618E0FDF715FD0246FB69D31A29
:10512C003A689A4203D83B68B3F1FF3F02D13B681F
:10513C00002B09D1FB68012283F85120FB68002267
:10514C0083F8502003232DE0FB68DB8E9BB2002BF1
:10515C00C6D1FA693968F86800F0F6F90346002BF5
:10516C0002D0FB6820225A65FB689B68002B0AD191
:10517C0000237B61FB681B68DB687B61FB681B6839
:10518C009B687B617B69FB68012283F85120FB687B
:10519C00002283F85020FB685B6D002B01D00123AB
:1051AC0000E0002318462037BD4680BD80B584B092
:1051BC0000AFF860B9601346FB80FB6893F8513080
:1051CC00DBB2012B01D0022397E0BB68002B02D08D
:1051DC00FB88002B01D101238FE0FB6893F8503042
:1051EC00012B01D1022388E0FB68012283F85020B7
:1051FC00FB68032283F85120FB6800225A65FB6888
:10520C00BA681A63FB68FA889A86FB68FA88DA86A9
:10521C00FB6800229A63FB6800225A64FB68002238
:10522C001A64FB6800229A87FB680022DA87FB6805
:10523C009B68B3F5004F0FD1FB681B681A68FB68BD
:10524C001B6822F040021A60FB681B681A68FB6836
:10525C001B6842F480421A60FB689B6C294ADA6234
:10526C00FB689B6C284A9A62FB689B6C274A1A6302
:10527C00FB689B6C00225A63FB68986CFB681B6B89
:10528C001946FB681B680C331A46FB68DB8E9BB215
:10529C00FDF7EEFD0346002B0BD0FB685B6D43F076
:1052AC001002FB685A65FB68002283F8502001232A
:1052BC0023E0FB681B681B6803F04003402B07D0FE
:1052CC00FB681B681A68FB681B6842F040021A6096
:1052DC00FB68002283F85020FB681B685A68FB6847
:1052EC001B6842F020025A60FB681B685A68FB6816
:1052FC001B6842F002025A60002318461037BD4664
:10530C0080BD00BFE7530008415300080354000858
:10531C0080B483B000AF786000BF0C37BD4680BC52
:10532C00704780B483B000AF786000BF0C37BD46C7
:10533C0080BC704780B586B000AF78607B685B6AD4
:10534C007B61FDF7FFFB38617B681B681B6803F012
:10535C002003202B3BD07B691B685A687B691B6838
:10536C0022F020025A607B691B685A687B691B68B3
:10537C0022F002025A603A696421786900F0E4F87C
:10538C000346002B05D07B695B6D43F020027B69E3
:10539C005A657B699B68002B0AD10023FB607B69F3
:1053AC001B68DB68FB607B691B689B68FB60FB68A8
:1053BC007B690022DA867B69012283F851207B69A4
:1053CC005B6D002B03D07869FFF7ABFF02E07869C7
:1053DC0001F0ECFA1837BD4680BD80B584B000AF43
:1053EC0078607B685B6AFB60F868FFF791FF00BF31
:1053FC001037BD4680BD80B584B000AF78607B6847
:10540C005B6AFB60FB681B685A68FB681B6822F0D0
:10541C0003025A60FB685B6D43F01002FB685A652F
:10542C00FB68012283F85120F868FFF77AFF00BF70
:10543C001037BD4680BD000080B588B000AFF86065
:10544C00B9603B601346FB71FDF77CFB0246BB6AFF
:10545C009B1A3A681344FB61FDF774FBB861394B36
:10546C001B685B011B0DFA6902FB03F37B6154E0C3
:10547C003B68B3F1FF3F50D0FDF764FB0246BB69BC
:10548C00D31AFA699A4202D9FB69002B3DD1FB6809
:10549C001B685A68FB681B6822F0E0025A60FB68C4
:1054AC005B68B3F5827F11D1FB689B68B3F5004F45
:1054BC0004D0FB689B68B3F5806F07D1FB681B6851
:1054CC001A68FB681B6822F040021A60FB689B6A32
:1054DC00B3F5005F0FD1FB681B681A68FB681B688B
:1054EC0022F400521A60FB681B681A68FB681B6880
:1054FC0042F400521A60FB68012283F85120FB68C9
:10550C00002283F85020032317E07B69002B01D184
:10551C000023FB617B69013B7B61FB681B689A681C
:10552C00BB681340BA689A420CBF01230023DBB25C
:10553C001A46FB799A429BD1002318462037BD4668
:10554C0080BD00BF0400002080B586B002AFF860BB
:10555C00B9607A607B680093BB6801220221F8680D
:10556C00FFF76AFF0346002B07D0FB685B6D43F027
:10557C002002FB685A65032313E07B680093BB6829
:10558C0000228021F868FFF757FF0346002B07D055
:10559C00FB685B6D43F02002FB685A65032300E057
:1055AC00002318461037BD4680BD80B582B000AFD1
:1055BC0078607B68002B01D1012341E07B6893F874
:1055CC003D30DBB2002B06D17B68002283F83C20F7
:1055DC007868FDF737F97B68022283F83D207B68F9
:1055EC001A687B6804331946104600F0A9FB7B68E7
:1055FC00012283F846207B68012283F83E207B68D9
:10560C00012283F83F207B68012283F840207B68CD
:10561C00012283F841207B68012283F842207B68B9
:10562C00012283F843207B68012283F844207B68A5
:10563C00012283F845207B68012283F83D2000235A
:10564C0018460837BD4680BD80B485B000AF786081
:10565C007B6893F83D30DBB2012B01D0012332E0A3
:10566C007B68022283F83D207B681B68184A9342B2
:10567C000ED07B681B68B3F1804F09D07B681B6828
:10568C00144A934204D07B681B68134A934211D18D
:10569C007B681B689B6803F00703FB60FB68062BA9
:1056AC0010D07B681B681A687B681B6842F001028B
:1056BC001A6007E07B681B681A687B681B6842F0FD
:1056CC0001021A60002318461437BD4680BC70478F
:1056DC00002C0140000400400008004080B483B05E
:1056EC0000AF78607B681B681A6A41F21113134093
:1056FC00002B0FD17B681B681A6A40F2444313409D
:10570C00002B07D17B681B681A687B681B6822F02A
:10571C0001021A607B68012283F83D2000231846A1
:10572C000C37BD4680BC704780B586B000AF786042
:10573C0039607B68002B01D1012393E07B6893F8DF
:10574C003D30DBB2002B06D17B68002283F83C2075
:10575C007868FDF733F87B68022283F83D207B687C
:10576C001B689B687A68126823F4804323F0070354
:10577C0093607B681A687B6804331946104600F006
:10578C00DFFA7B681B689B687B617B681B689B6985
:10579C003B617B681B681B6AFB603B681B687A6912
:1057AC0013437B613B6923F4407323F003033B6198
:1057BC003B689A683B689B691B0213433A69134325
:1057CC003B613B6923F4406323F00C033B613B6971
:1057DC0023F4704323F0F0033B613B68DA683B68C9
:1057EC00DB691B0213433A6913433B613B681B693A
:1057FC001A013B681B6A1B0313433A6913433B6151
:10580C00FB6823F02203FB603B685A683B685B69CA
:10581C001B011343FA681343FB607B681B687A69AE
:10582C009A607B681B683A699A617B681B68FA68A6
:10583C001A627B68012283F846207B68012283F878
:10584C003E207B68012283F83F207B68012283F88D
:10585C0042207B68012283F843207B68012283F875
:10586C003D20002318461837BD4680BD80B584B056
:10587C0000AF786039607B6893F83E30FB737B68CF
:10588C0093F83F30BB737B6893F842307B737B6833
:10589C0093F843303B733B68002B10D1FB7B012BFF
:1058AC0002D17B7B012B01D0012369E07B680222B2
:1058BC0083F83E207B68022283F8422031E03B686B
:1058CC00042B10D1BB7B012B02D13B7B012B01D0D4
:1058DC00012355E07B68022283F83F207B6802227B
:1058EC0083F843201DE0FB7B012B08D1BB7B012BF4
:1058FC0005D17B7B012B02D13B7B012B01D00123FA
:10590C003EE07B68022283F83E207B68022283F80B
:10591C003F207B68022283F842207B68022283F8B6
:10592C0043203B68002B03D03B68042B08D00FE0CE
:10593C007B681B6801220021184600F005FB16E06D
:10594C007B681B6801220421184600F0FDFA0EE06A
:10595C007B681B6801220021184600F0F5FA7B6871
:10596C001B6801220421184600F0EEFA00BF7B6888
:10597C001B681A687B681B6842F001021A600023DE
:10598C0018461037BD4680BD80B584B000AF786036
:10599C007B681B68DB68FB607B681B681B69BB60F2
:1059AC00BB6803F00203002B20D0FB6803F002035A
:1059BC00002B1BD07B681B686FF002021A617B689E
:1059CC0001221A777B681B689B6903F00303002B89
:1059DC0003D07868FBF72AFE05E0786800F094F9AC
:1059EC00786800F09AF97B6800221A77BB6803F09C
:1059FC000403002B20D0FB6803F00403002B1BD006
:105A0C007B681B686FF004021A617B6802221A77AC
:105A1C007B681B689B6903F44073002B03D0786888
:105A2C00FBF704FE05E0786800F06EF9786800F08A
:105A3C0074F97B6800221A77BB6803F00803002B0B
:105A4C0020D0FB6803F00803002B1BD07B681B687D
:105A5C006FF008021A617B6804221A777B681B6856
:105A6C00DB6903F00303002B03D07868FBF7DEFD42
:105A7C0005E0786800F048F9786800F04EF97B682A
:105A8C0000221A77BB6803F01003002B20D0FB68B0
:105A9C0003F01003002B1BD07B681B686FF0100207
:105AAC001A617B6808221A777B681B68DB6903F430
:105ABC004073002B03D07868FBF7B8FD05E07868DD
:105ACC0000F022F9786800F028F97B6800221A7738
